:0F00000075903330B5FD30B44B30B32430B20CB3
:0F000F001200AB30B5EE30B43C30B31520B2F177
:0F001E001200DD30B5DF30B42D30B30630B2F153
:0F002D0020B2DC30B20C12009230B5CA30B418D9
:0F003C0020B3CD20B2F11200C430B5BB30B409EF
:0E004B0020B3BE30B2F120B2DFE5B05403F8AE
:0F005900B800030200757A0579641200ABD9FB79
:10006800DAF7D8F330B4E520B4940200750200033F
:0F0078007D037E147F14DFFEDEFADDF6227D08A5
:0E0087007E147F14DFFEDEFADDF62275900196
:0F009500120078759002120078759004120078AE
:1000A40075900812007822759008120078759004F3
:1000B400120078759002120078759001120078226F
:0F00C400759001120085759002120085759004E9
:1000D300120085759008120085227590081200851C
:0F00E300759004120085759002120085759001CA
:1000F200120085227D027E647F64DFFEDEFADDF679
:020102002222B7
:00000001FF
