:03000000020050AB
:0E001000414E47454C20504144494C4C411D47
:0F0050007590F212013D75900012013D7590F20E
:0F005F007F2530B5FDDFFBE5B0540FF9B9000385
:0F006E0002014AB90103020188B9020302019C91
:10007D0080FEF9B9200475900022B941047590EE07
:0F008D0022B9420475903E22B9430475909C221B
:0E009C00B9440475907A22B9450475909E22ED
:0E00AA00B9460475908E22B947047590F6226F
:0E00B800B9480475902E22B949047590602253
:0E00C600B94A047590F022B94B0475906E2271
:0E00D400B94C0475901C22B94D047590EC22B5
:0E00E200B94E0475902A22B94F047590FC2285
:0E00F000B950047590CE22B951047590E622E5
:0E00FE00B9520475900A22B953047590B622C7
:0E010C00B9540475901E22B9550475907C22DA
:0E011A00B9560475903822B9570475907E22AC
:0E012800B9580475906C22B959047590742270
:0F013600B95A037590DA227D087EFF7FFFDFFE46
:0E014500DEFADDF62275900012013D75906025
:0F01530012013D7590DA12013D7590F212013DD7
:0F01620075906612013D7590B612013D75903E85
:0F01710012013D7590E212013D7590FE12013DA5
:0F0180007590E612013D80C27C00900010EC9358
:10018F0012007F12013D0CB41DF402007D75900129
:0F019F0012013D12013D12013D12013D12013DC1
:0F01AE0075900012013D12013D12013D12013DFD
:0801BD0012013D80DA02007D11
:00000001FF
