:020000040000FA
:020000000528D1
:040002000034003492
:0800080035280313831288015F
:10001000890186010313831606309F000030890092
:1000200000308800FF30860001178B170B168B10ED
:10003000031383127820033089004130880069203F
:10004000033089004C30880069200330890041303A
:1000500088006920033089004E3088006920033011
:100060008900203088006920052878200330890025
:100070004C3088005A20033089004F3088005A20C5
:1000800003308900503088005A2003308900453001
:1000900088005A20033089005A3088005A2069208D
:1000A00069206920692001308900013088005A20C8
:1000B0008B1009000130A000FA30A1000A30A20024
:1000C000A20B6028A10B5E28A00B5C2800308900E1
:1000D00008006430A000FA30A1000A30A200A20B90
:1000E0006F28A10B6D28A00B6B2800308900080039
:1000F00001308900383088005A20013089003830BA
:1001000088005A2001308900383088005A20013098
:100110008900383088005A20013089000C3088006E
:100120005A2001308900013088005A2001308900AE
:10013000063088005A20013089000E3088005A208D
:0C01400001308900803088005A2008003F
:02400E00323D41
:00000001FF
