:060000000200250200D2FF
:0300130002010FD8
:0F00250075A8857438120090740D120090740144
:0F00340012009074061200907401120090744331
:0F00430012009C744F12009C744D12009C744F5D
:0F00520012009C741C120090741C120090741CFD
:0F006100120090741C120090741C120090741CFA
:0F007000120090741C120090741C120090741CEB
:0F007F00120090741C120090741C120090741CDC
:10008E0080ACF590C2B0D2B1C2B11200A822F590E8
:10009E00D2B0D2B1C2B11200A8227DFF7EFFDEFE29
:0F00AE00DDFA22F590C2B0D2B1C2B11200C92260
:1000BD00F590D2B0D2B1C2B11200C9227DFF7EFF40
:0F00CD00DEFEDDFA2274381200B1740D1200B19C
:0F00DC0074011200B174061200B174011200B168
:0F00EB0074521200BD747C1200BD74431200BD2C
:0F00FA0074411200BD74521200BD74441200BD57
:10010900744F1200BD3274381200B1740D1200B16F
:0F01190074011200B174061200B174011200B12A
:0F01280074471200BD744F1200BD744E1200BD1B
:0F013700745A1200BD74411200BD744C1200BD09
:0F01460074451200BD745A1200BD74141200B13A
:0F015500744C1200BD74451200BD74411200BD00
:06016400745C1200BD32C4
:00000001FF
