:060000000200250200D2FF
:03001300020123C4
:0F00250075A8857438120090740D120090740144
:0F0034001200907406120090740112009074482C
:0F00430012009C744F12009C744C12009C74416C
:0F00520012009C741C120090741C120090741CFD
:0F006100120090741C120090741C120090741CFA
:0F007000120090741C120090741C120090741CEB
:0F007F00120090741C120090741C120090741CDC
:10008E0080ACF590C2B0D2B1C2B11200A822F590E8
:10009E00D2B0D2B1C2B11200A8227DFF7EFFDEFE29
:0F00AE00DDFA22F590C2B0D2B1C2B11200C92260
:1000BD00F590D2B0D2B1C2B11200C9227DFF7EFF40
:0F00CD00DEFEDDFA2274381200B1740D1200B19C
:0F00DC0074011200B174061200B174011200B168
:0F00EB0074431200BD74411200BD74521200BD67
:0F00FA00744C1200BD744F1200BD74141200B18B
:0F01090074411200BD744E1200BD74471200BD48
:1001180074451200BD744C1200BD3274381200B11F
:0F012800740D1200B174011200B174061200B10F
:0F01370074011200B1744C1200BD74651200BD4A
:0F014600745A1200BD74411200BD744E1200BDF8
:0F01550074141200B174471200BD74411200BD42
:0F01640074621200BD74431200BD74491200BDD5
:0601730074411200BD32D0
:00000001FF
