:060000000200250200F4DD
:0300130002012CBB
:0F00250075A88574381200B2740D1200B2740100
:0F0034001200B274061200B274011200B2746F9F
:0F0043001200BE74731200BE746F1200BE741CE4
:100052001200B21200CA741C1200B21200CA741C3E
:100062001200B21200CA741C1200B21200CA741C2E
:100072001200B21200CA741C1200B21200CA741C1E
:100082001200B21200CA741C1200B21200CA741C0E
:100092001200B21200CA741C1200B21200CA741CFE
:1000A2001200B21200CA741C1200B21200CA808A74
:1000B200F590C2B0D2B1C2B11200CA22F590D2B04C
:1000C200D2B1C2B11200CA227DFF7EFFDEFEDDFA8E
:0F00D20022F590C2B0D2B1C2B11200EB22F5906C
:1000E100D2B0D2B1C2B11200EB227DFF7EFFDEFEA3
:0F00F100DDFA2274381200D3740D1200D374019B
:0F0100001200D374061200D374011200D3744D91
:0F010F001200DF74491200DF74471200DF7455CD
:10011E001200DF74451200DF744C1200DF327438A7
:0F012E001200D3740D1200D374011200D37406A3
:0F013D001200D374011200D3744C1200DF744F00
:0F014C001200DF74501200DF74451200DF745A86
:04015B001200DF327D
:00000001FF
