:060000000200250200D2FF
:03001300020105E2
:0F00250075A8857438120090740D120090740144
:0F00340012009074061200907401120090744331
:0F00430012009C744512009C745412009C744966
:0F00520012009C741C120090741C120090741CFD
:0F006100120090741C120090741C120090741CFA
:0F007000120090741C120090741C120090741CEB
:0F007F00120090741C120090741C120090741CDC
:10008E0080ACF590C2B0D2B1C2B11200A822F590E8
:10009E00D2B0D2B1C2B11200A8227DFF7EFFDEFE29
:0F00AE00DDFA22F590C2B0D2B1C2B11200C92260
:1000BD00F590D2B0D2B1C2B11200C9227DFF7EFF40
:0F00CD00DEFEDDFA2274381200B1740D1200B19C
:0F00DC0074011200B174061200B174011200B168
:0F00EB0074411200BD744E1200BD74471200BD67
:1000FA0074451200BD744C1200BD3274381200B13E
:0F010A00740D1200B174011200B174061200B12D
:0F01190074011200B174501200BD74411200BD88
:0F01280074441200BD74491200BD744C1200BD26
:0F013700744C1200BD74411200BD74141200B15B
:0F01460074451200BD74531200BD74511200BDF8
:0F01550074551200BD74451200BD74441200BDF4
:0601640074411200BD32DF
:00000001FF
